{
  "contractName": "AuthenticationServiceProvider",
  "abi": [
    {
      "inputs": [],
      "stateMutability": "nonpayable",
      "type": "constructor"
    },
    {
      "anonymous": false,
      "inputs": [
        {
          "indexed": true,
          "internalType": "address",
          "name": "companyAddress",
          "type": "address"
        }
      ],
      "name": "CompanyDeleted",
      "type": "event"
    },
    {
      "anonymous": false,
      "inputs": [
        {
          "indexed": true,
          "internalType": "address",
          "name": "companyAddress",
          "type": "address"
        },
        {
          "indexed": false,
          "internalType": "string",
          "name": "name",
          "type": "string"
        }
      ],
      "name": "CompanyRegistered",
      "type": "event"
    },
    {
      "anonymous": false,
      "inputs": [
        {
          "indexed": true,
          "internalType": "address",
          "name": "companyAddress",
          "type": "address"
        },
        {
          "indexed": false,
          "internalType": "uint256",
          "name": "amount",
          "type": "uint256"
        }
      ],
      "name": "DepositAdded",
      "type": "event"
    },
    {
      "anonymous": false,
      "inputs": [
        {
          "components": [
            {
              "internalType": "address",
              "name": "company",
              "type": "address"
            },
            {
              "internalType": "address",
              "name": "walletAddress",
              "type": "address"
            },
            {
              "internalType": "bytes32",
              "name": "passwordHash",
              "type": "bytes32"
            }
          ],
          "indexed": true,
          "internalType": "struct CompanyRegistry.User",
          "name": "user",
          "type": "tuple"
        }
      ],
      "name": "UserLoggedIn",
      "type": "event"
    },
    {
      "anonymous": false,
      "inputs": [
        {
          "indexed": true,
          "internalType": "address",
          "name": "companyAddress",
          "type": "address"
        },
        {
          "indexed": true,
          "internalType": "address",
          "name": "userAddress",
          "type": "address"
        }
      ],
      "name": "UserRegistered",
      "type": "event"
    },
    {
      "anonymous": false,
      "inputs": [
        {
          "indexed": true,
          "internalType": "address",
          "name": "userAddress",
          "type": "address"
        },
        {
          "indexed": false,
          "internalType": "uint256",
          "name": "amount",
          "type": "uint256"
        }
      ],
      "name": "UserRewarded",
      "type": "event"
    },
    {
      "inputs": [],
      "name": "addDeposit",
      "outputs": [],
      "stateMutability": "payable",
      "type": "function",
      "payable": true
    },
    {
      "inputs": [],
      "name": "deleteCompany",
      "outputs": [],
      "stateMutability": "nonpayable",
      "type": "function"
    },
    {
      "inputs": [
        {
          "internalType": "address",
          "name": "walletAddress",
          "type": "address"
        }
      ],
      "name": "doesLoginExist",
      "outputs": [
        {
          "internalType": "bool",
          "name": "",
          "type": "bool"
        }
      ],
      "stateMutability": "view",
      "type": "function",
      "constant": true
    },
    {
      "inputs": [],
      "name": "getCompanyDeposit",
      "outputs": [
        {
          "internalType": "uint256",
          "name": "",
          "type": "uint256"
        }
      ],
      "stateMutability": "view",
      "type": "function",
      "constant": true
    },
    {
      "inputs": [
        {
          "internalType": "address",
          "name": "CompanyAddress",
          "type": "address"
        },
        {
          "internalType": "address",
          "name": "userAddress",
          "type": "address"
        }
      ],
      "name": "getIsLoggedInStatus",
      "outputs": [
        {
          "internalType": "bool",
          "name": "",
          "type": "bool"
        }
      ],
      "stateMutability": "view",
      "type": "function",
      "constant": true
    },
    {
      "inputs": [],
      "name": "getRegisteredCompanyName",
      "outputs": [
        {
          "internalType": "string",
          "name": "",
          "type": "string"
        }
      ],
      "stateMutability": "view",
      "type": "function",
      "constant": true
    },
    {
      "inputs": [
        {
          "internalType": "address",
          "name": "CompanyAddress",
          "type": "address"
        },
        {
          "internalType": "address",
          "name": "userAddress",
          "type": "address"
        }
      ],
      "name": "gettotalLoggedInDays",
      "outputs": [
        {
          "internalType": "uint256",
          "name": "",
          "type": "uint256"
        }
      ],
      "stateMutability": "view",
      "type": "function",
      "constant": true
    },
    {
      "inputs": [
        {
          "internalType": "address",
          "name": "walletAddress",
          "type": "address"
        }
      ],
      "name": "lastLoginTime",
      "outputs": [
        {
          "internalType": "uint256",
          "name": "",
          "type": "uint256"
        }
      ],
      "stateMutability": "view",
      "type": "function",
      "constant": true
    },
    {
      "inputs": [
        {
          "internalType": "address",
          "name": "walletAddress",
          "type": "address"
        },
        {
          "internalType": "bytes32",
          "name": "passwordHash",
          "type": "bytes32"
        }
      ],
      "name": "loginUser",
      "outputs": [
        {
          "internalType": "bool",
          "name": "",
          "type": "bool"
        }
      ],
      "stateMutability": "nonpayable",
      "type": "function"
    },
    {
      "inputs": [
        {
          "internalType": "address",
          "name": "walletAddress",
          "type": "address"
        }
      ],
      "name": "logoutUser",
      "outputs": [],
      "stateMutability": "nonpayable",
      "type": "function"
    },
    {
      "inputs": [],
      "name": "owner",
      "outputs": [
        {
          "internalType": "address",
          "name": "",
          "type": "address"
        }
      ],
      "stateMutability": "view",
      "type": "function",
      "constant": true
    },
    {
      "inputs": [
        {
          "internalType": "string",
          "name": "name",
          "type": "string"
        }
      ],
      "name": "registerCompany",
      "outputs": [],
      "stateMutability": "nonpayable",
      "type": "function"
    },
    {
      "inputs": [
        {
          "internalType": "address",
          "name": "walletAddress",
          "type": "address"
        },
        {
          "internalType": "bytes32",
          "name": "passwordHash",
          "type": "bytes32"
        }
      ],
      "name": "registerUser",
      "outputs": [],
      "stateMutability": "nonpayable",
      "type": "function"
    },
    {
      "inputs": [
        {
          "internalType": "address",
          "name": "userAddress",
          "type": "address"
        }
      ],
      "name": "updateLoggedInStatus",
      "outputs": [
        {
          "internalType": "bool",
          "name": "",
          "type": "bool"
        },
        {
          "internalType": "uint256",
          "name": "",
          "type": "uint256"
        }
      ],
      "stateMutability": "nonpayable",
      "type": "function"
    }
  ],
  "bytecode": "0x608060405234801561001057600080fd5b5033600360006101000a81548173ffffffffffffffffffffffffffffffffffffffff021916908373ffffffffffffffffffffffffffffffffffffffff16021790555061305f806100616000396000f3fe6080604052600436106100dc5760003560e01c80638da5cb5b1161007f578063c89f883e11610059578063c89f883e1461029f578063cc6911b6146102dc578063d7e0b6e314610307578063f7a0490314610330576100dc565b80638da5cb5b146101f9578063a73779a614610224578063b4bcca0314610262576100dc565b80633f3c2ad2116100bb5780633f3c2ad2146101705780634a58db19146101ad5780635045499c146101b75780637f191b8d146101ce576100dc565b8062544194146100e157806309df50601461010a57806319abc6a814610133575b600080fd5b3480156100ed57600080fd5b506101086004803603810190610103919061245c565b61036d565b005b34801561011657600080fd5b50610131600480360381019061012c91906123bb565b610523565b005b34801561013f57600080fd5b5061015a600480360381019061015591906123e4565b6105c9565b6040516101679190612c61565b60405180910390f35b34801561017c57600080fd5b50610197600480360381019061019291906123bb565b610848565b6040516101a49190612a1b565b60405180910390f35b6101b5610acf565b005b3480156101c357600080fd5b506101cc610c4c565b005b3480156101da57600080fd5b506101e3610e1d565b6040516101f09190612a5f565b60405180910390f35b34801561020557600080fd5b5061020e610eef565b60405161021b9190612a00565b60405180910390f35b34801561023057600080fd5b5061024b600480360381019061024691906123bb565b610f15565b604051610259929190612a36565b60405180910390f35b34801561026e57600080fd5b50610289600480360381019061028491906123bb565b61127e565b6040516102969190612c61565b60405180910390f35b3480156102ab57600080fd5b506102c660048036038101906102c191906123e4565b6114b4565b6040516102d39190612a1b565b60405180910390f35b3480156102e857600080fd5b506102f1611740565b6040516102fe9190612c61565b60405180910390f35b34801561031357600080fd5b5061032e60048036038101906103299190612420565b61181a565b005b34801561033c57600080fd5b5061035760048036038101906103529190612420565b611c22565b6040516103649190612a1b565b60405180910390f35b60008151116103b1576040517f08c379a00000000000000000000000000000000000000000000000000000000081526004016103a890612c01565b60405180910390fd5b6000600160003373ffffffffffffffffffffffffffffffffffffffff1673ffffffffffffffffffffffffffffffffffffffff168152602001908152602001600020600001805461040090612e72565b905014610442576040517f08c379a000000000000000000000000000000000000000000000000000000000815260040161043990612ba1565b60405180910390fd5b6040518060600160405280828152602001600081526020016000815250600160003373ffffffffffffffffffffffffffffffffffffffff1673ffffffffffffffffffffffffffffffffffffffff16815260200190815260200160002060008201518160000190805190602001906104ba929190612246565b5060208201518160010155604082015181600201559050503373ffffffffffffffffffffffffffffffffffffffff167f76686aa361308f4a08557cca1a847299ce61e5602a3495cd359a599a1dca438c826040516105189190612a5f565b60405180910390a250565b61052c81610848565b61056b576040517f08c379a000000000000000000000000000000000000000000000000000000000815260040161056290612c21565b60405180910390fd5b6000600260008373ffffffffffffffffffffffffffffffffffffffff1673ffffffffffffffffffffffffffffffffffffffff16815260200190815260200160002060050160006101000a81548160ff02191690831515021790555050565b600080600160008573ffffffffffffffffffffffffffffffffffffffff1673ffffffffffffffffffffffffffffffffffffffff168152602001908152602001600020600001805461061990612e72565b90501161065b576040517f08c379a000000000000000000000000000000000000000000000000000000000815260040161065290612ae1565b60405180910390fd5b662386f26fc10000600160003373ffffffffffffffffffffffffffffffffffffffff1673ffffffffffffffffffffffffffffffffffffffff16815260200190815260200160002060010154116106e6576040517f08c379a00000000000000000000000000000000000000000000000000000000081526004016106dd90612b81565b60405180910390fd5b8273ffffffffffffffffffffffffffffffffffffffff166000808473ffffffffffffffffffffffffffffffffffffffff1673ffffffffffffffffffffffffffffffffffffffff16815260200190815260200160002060000160009054906101000a900473ffffffffffffffffffffffffffffffffffffffff1673ffffffffffffffffffffffffffffffffffffffff16146107b5576040517f08c379a00000000000000000000000000000000000000000000000000000000081526004016107ac90612b61565b60405180910390fd5b6107be82610848565b6107fd576040517f08c379a00000000000000000000000000000000000000000000000000000000081526004016107f490612aa1565b60405180910390fd5b600260008373ffffffffffffffffffffffffffffffffffffffff1673ffffffffffffffffffffffffffffffffffffffff16815260200190815260200160002060040154905092915050565b600080600160003373ffffffffffffffffffffffffffffffffffffffff1673ffffffffffffffffffffffffffffffffffffffff168152602001908152602001600020600001805461089890612e72565b9050116108da576040517f08c379a00000000000000000000000000000000000000000000000000000000081526004016108d190612ae1565b60405180910390fd5b662386f26fc10000600160003373ffffffffffffffffffffffffffffffffffffffff1673ffffffffffffffffffffffffffffffffffffffff1681526020019081526020016000206001015411610965576040517f08c379a000000000000000000000000000000000000000000000000000000000815260040161095c90612b81565b60405180910390fd5b3373ffffffffffffffffffffffffffffffffffffffff166000808473ffffffffffffffffffffffffffffffffffffffff1673ffffffffffffffffffffffffffffffffffffffff16815260200190815260200160002060000160009054906101000a900473ffffffffffffffffffffffffffffffffffffffff1673ffffffffffffffffffffffffffffffffffffffff1614610a34576040517f08c379a0000000000000000000000000000000000000000000000000000000008152600401610a2b90612b01565b60405180910390fd5b8173ffffffffffffffffffffffffffffffffffffffff16600260008473ffffffffffffffffffffffffffffffffffffffff1673ffffffffffffffffffffffffffffffffffffffff16815260200190815260200160002060000160010160009054906101000a900473ffffffffffffffffffffffffffffffffffffffff1673ffffffffffffffffffffffffffffffffffffffff16149050919050565b6000600160003373ffffffffffffffffffffffffffffffffffffffff1673ffffffffffffffffffffffffffffffffffffffff1681526020019081526020016000206000018054610b1e90612e72565b905011610b60576040517f08c379a0000000000000000000000000000000000000000000000000000000008152600401610b5790612ae1565b60405180910390fd5b60003411610ba3576040517f08c379a0000000000000000000000000000000000000000000000000000000008152600401610b9a90612b41565b60405180910390fd5b34600160003373ffffffffffffffffffffffffffffffffffffffff1673ffffffffffffffffffffffffffffffffffffffff1681526020019081526020016000206001016000828254610bf59190612cf9565b925050819055503373ffffffffffffffffffffffffffffffffffffffff167fa2a2db73af12c9f5bef6303364d44e78f97e992c353cd8659f3474c471427e9b34604051610c429190612c61565b60405180910390a2565b6000600160003373ffffffffffffffffffffffffffffffffffffffff1673ffffffffffffffffffffffffffffffffffffffff1681526020019081526020016000206000018054610c9b90612e72565b905011610cdd576040517f08c379a0000000000000000000000000000000000000000000000000000000008152600401610cd490612ae1565b60405180910390fd5b6000600160003373ffffffffffffffffffffffffffffffffffffffff1673ffffffffffffffffffffffffffffffffffffffff168152602001908152602001600020600101549050600160003373ffffffffffffffffffffffffffffffffffffffff1673ffffffffffffffffffffffffffffffffffffffff16815260200190815260200160002060008082016000610d7491906122cc565b6001820160009055600282016000905550503373ffffffffffffffffffffffffffffffffffffffff167f2564dc12f5c7d4be57c9d0417c313a76d08624ac131a3772f9abeedff476161160405160405180910390a26000811115610e1a573373ffffffffffffffffffffffffffffffffffffffff166108fc829081150290604051600060405180830381858888f19350505050158015610e18573d6000803e3d6000fd5b505b50565b6060600160003373ffffffffffffffffffffffffffffffffffffffff1673ffffffffffffffffffffffffffffffffffffffff1681526020019081526020016000206000018054610e6c90612e72565b80601f0160208091040260200160405190810160405280929190818152602001828054610e9890612e72565b8015610ee55780601f10610eba57610100808354040283529160200191610ee5565b820191906000526020600020905b815481529060010190602001808311610ec857829003601f168201915b5050505050905090565b600360009054906101000a900473ffffffffffffffffffffffffffffffffffffffff1681565b600080610f2183610848565b610f60576040517f08c379a0000000000000000000000000000000000000000000000000000000008152600401610f5790612c41565b60405180910390fd5b60006201518042610f719190612d4f565b9050600062015180600260008773ffffffffffffffffffffffffffffffffffffffff1673ffffffffffffffffffffffffffffffffffffffff16815260200190815260200160002060030154610fc69190612d4f565b9050808211156110e85760018183610fde9190612d80565b1415611043576001600260008773ffffffffffffffffffffffffffffffffffffffff1673ffffffffffffffffffffffffffffffffffffffff16815260200190815260200160002060040160008282546110379190612cf9565b925050819055506110a0565b600281836110519190612d80565b1061109f576001600260008773ffffffffffffffffffffffffffffffffffffffff1673ffffffffffffffffffffffffffffffffffffffff168152602001908152602001600020600401819055505b5b42600260008773ffffffffffffffffffffffffffffffffffffffff1673ffffffffffffffffffffffffffffffffffffffff168152602001908152602001600020600301819055505b6001600260008773ffffffffffffffffffffffffffffffffffffffff1673ffffffffffffffffffffffffffffffffffffffff16815260200190815260200160002060050160006101000a81548160ff0219169083151502179055506007600260008773ffffffffffffffffffffffffffffffffffffffff1673ffffffffffffffffffffffffffffffffffffffff1681526020019081526020016000206004015414156111e0576111978561204f565b6000600260008773ffffffffffffffffffffffffffffffffffffffff1673ffffffffffffffffffffffffffffffffffffffff168152602001908152602001600020600401819055505b600260008673ffffffffffffffffffffffffffffffffffffffff1673ffffffffffffffffffffffffffffffffffffffff16815260200190815260200160002060050160009054906101000a900460ff16600260008773ffffffffffffffffffffffffffffffffffffffff1673ffffffffffffffffffffffffffffffffffffffff16815260200190815260200160002060040154935093505050915091565b600080600160003373ffffffffffffffffffffffffffffffffffffffff1673ffffffffffffffffffffffffffffffffffffffff16815260200190815260200160002060000180546112ce90612e72565b905011611310576040517f08c379a000000000000000000000000000000000000000000000000000000000815260040161130790612ae1565b60405180910390fd5b662386f26fc10000600160003373ffffffffffffffffffffffffffffffffffffffff1673ffffffffffffffffffffffffffffffffffffffff168152602001908152602001600020600101541161139b576040517f08c379a000000000000000000000000000000000000000000000000000000000815260040161139290612b81565b60405180910390fd5b3373ffffffffffffffffffffffffffffffffffffffff166000808473ffffffffffffffffffffffffffffffffffffffff1673ffffffffffffffffffffffffffffffffffffffff16815260200190815260200160002060000160009054906101000a900473ffffffffffffffffffffffffffffffffffffffff1673ffffffffffffffffffffffffffffffffffffffff161461146a576040517f08c379a000000000000000000000000000000000000000000000000000000000815260040161146190612b01565b60405180910390fd5b600260008373ffffffffffffffffffffffffffffffffffffffff1673ffffffffffffffffffffffffffffffffffffffff168152602001908152602001600020600301549050919050565b600080600160008573ffffffffffffffffffffffffffffffffffffffff1673ffffffffffffffffffffffffffffffffffffffff168152602001908152602001600020600001805461150490612e72565b905011611546576040517f08c379a000000000000000000000000000000000000000000000000000000000815260040161153d90612ae1565b60405180910390fd5b662386f26fc10000600160008573ffffffffffffffffffffffffffffffffffffffff1673ffffffffffffffffffffffffffffffffffffffff16815260200190815260200160002060010154116115d1576040517f08c379a00000000000000000000000000000000000000000000000000000000081526004016115c890612b81565b60405180910390fd5b8273ffffffffffffffffffffffffffffffffffffffff166000808473ffffffffffffffffffffffffffffffffffffffff1673ffffffffffffffffffffffffffffffffffffffff16815260200190815260200160002060000160009054906101000a900473ffffffffffffffffffffffffffffffffffffffff1673ffffffffffffffffffffffffffffffffffffffff16146116a0576040517f08c379a000000000000000000000000000000000000000000000000000000000815260040161169790612b61565b60405180910390fd5b6116a982610848565b6116e8576040517f08c379a00000000000000000000000000000000000000000000000000000000081526004016116df90612aa1565b60405180910390fd5b600260008373ffffffffffffffffffffffffffffffffffffffff1673ffffffffffffffffffffffffffffffffffffffff16815260200190815260200160002060050160009054906101000a900460ff16905092915050565b600080600160003373ffffffffffffffffffffffffffffffffffffffff1673ffffffffffffffffffffffffffffffffffffffff168152602001908152602001600020600001805461179090612e72565b9050116117d2576040517f08c379a00000000000000000000000000000000000000000000000000000000081526004016117c990612ae1565b60405180910390fd5b600160003373ffffffffffffffffffffffffffffffffffffffff1673ffffffffffffffffffffffffffffffffffffffff16815260200190815260200160002060010154905090565b6000801b811415611860576040517f08c379a000000000000000000000000000000000000000000000000000000000815260040161185790612a81565b60405180910390fd5b6000600160003373ffffffffffffffffffffffffffffffffffffffff1673ffffffffffffffffffffffffffffffffffffffff16815260200190815260200160002060000180546118af90612e72565b9050116118f1576040517f08c379a00000000000000000000000000000000000000000000000000000000081526004016118e890612be1565b60405180910390fd5b662386f26fc10000600160003373ffffffffffffffffffffffffffffffffffffffff1673ffffffffffffffffffffffffffffffffffffffff168152602001908152602001600020600101541161197c576040517f08c379a000000000000000000000000000000000000000000000000000000000815260040161197390612b81565b60405180910390fd5b8173ffffffffffffffffffffffffffffffffffffffff166000808473ffffffffffffffffffffffffffffffffffffffff1673ffffffffffffffffffffffffffffffffffffffff16815260200190815260200160002060010160009054906101000a900473ffffffffffffffffffffffffffffffffffffffff1673ffffffffffffffffffffffffffffffffffffffff161415611a4c576040517f08c379a0000000000000000000000000000000000000000000000000000000008152600401611a4390612bc1565b60405180910390fd5b60405180606001604052803373ffffffffffffffffffffffffffffffffffffffff1681526020018373ffffffffffffffffffffffffffffffffffffffff168152602001828152506000808473ffffffffffffffffffffffffffffffffffffffff1673ffffffffffffffffffffffffffffffffffffffff16815260200190815260200160002060008201518160000160006101000a81548173ffffffffffffffffffffffffffffffffffffffff021916908373ffffffffffffffffffffffffffffffffffffffff16021790555060208201518160010160006101000a81548173ffffffffffffffffffffffffffffffffffffffff021916908373ffffffffffffffffffffffffffffffffffffffff16021790555060408201518160020155905050600160003373ffffffffffffffffffffffffffffffffffffffff1673ffffffffffffffffffffffffffffffffffffffff1681526020019081526020016000206002016000815480929190611bbf90612ed8565b91905055508173ffffffffffffffffffffffffffffffffffffffff163373ffffffffffffffffffffffffffffffffffffffff167f2138b9314634f9fdd5e49bee3eaf17ca557b6637524d0db759711c3bfcd3d85060405160405180910390a35050565b6000611c2d83610848565b15611c6d576040517f08c379a0000000000000000000000000000000000000000000000000000000008152600401611c6490612b21565b60405180910390fd5b6000801b821415611cb3576040517f08c379a0000000000000000000000000000000000000000000000000000000008152600401611caa90612a81565b60405180910390fd5b816000808573ffffffffffffffffffffffffffffffffffffffff1673ffffffffffffffffffffffffffffffffffffffff1681526020019081526020016000206002015414611d36576040517f08c379a0000000000000000000000000000000000000000000000000000000008152600401611d2d90612ac1565b60405180910390fd5b60008060008573ffffffffffffffffffffffffffffffffffffffff1673ffffffffffffffffffffffffffffffffffffffff1681526020019081526020016000206040518060600160405290816000820160009054906101000a900473ffffffffffffffffffffffffffffffffffffffff1673ffffffffffffffffffffffffffffffffffffffff1673ffffffffffffffffffffffffffffffffffffffff1681526020016001820160009054906101000a900473ffffffffffffffffffffffffffffffffffffffff1673ffffffffffffffffffffffffffffffffffffffff1673ffffffffffffffffffffffffffffffffffffffff168152602001600282015481525050905060405180608001604052808281526020014281526020016001815260200160011515815250600260008673ffffffffffffffffffffffffffffffffffffffff1673ffffffffffffffffffffffffffffffffffffffff16815260200190815260200160002060008201518160000160008201518160000160006101000a81548173ffffffffffffffffffffffffffffffffffffffff021916908373ffffffffffffffffffffffffffffffffffffffff16021790555060208201518160010160006101000a81548173ffffffffffffffffffffffffffffffffffffffff021916908373ffffffffffffffffffffffffffffffffffffffff160217905550604082015181600201555050602082015181600301556040820151816004015560608201518160050160006101000a81548160ff0219169083151502179055509050506000808573ffffffffffffffffffffffffffffffffffffffff1673ffffffffffffffffffffffffffffffffffffffff168152602001908152602001600020604051611fc291906129e5565b60405180910390207fc3e258c2735e50ca59d445076e61f3e568466d65196515d5fa3cef1518fff1da60405160405180910390a2600260008573ffffffffffffffffffffffffffffffffffffffff1673ffffffffffffffffffffffffffffffffffffffff16815260200190815260200160002060050160009054906101000a900460ff1691505092915050565b6000600160003373ffffffffffffffffffffffffffffffffffffffff1673ffffffffffffffffffffffffffffffffffffffff16815260200190815260200160002060020154600160003373ffffffffffffffffffffffffffffffffffffffff1673ffffffffffffffffffffffffffffffffffffffff168152602001908152602001600020600101546120e19190612d4f565b9050600260008373ffffffffffffffffffffffffffffffffffffffff1673ffffffffffffffffffffffffffffffffffffffff16815260200190815260200160002060000160010160009054906101000a900473ffffffffffffffffffffffffffffffffffffffff1673ffffffffffffffffffffffffffffffffffffffff166108fc829081150290604051600060405180830381858888f1935050505015801561218e573d6000803e3d6000fd5b50600260008373ffffffffffffffffffffffffffffffffffffffff1673ffffffffffffffffffffffffffffffffffffffff16815260200190815260200160002060000160010160009054906101000a900473ffffffffffffffffffffffffffffffffffffffff1673ffffffffffffffffffffffffffffffffffffffff167fe366ef68d2c0620e9e4c5074fd7ad0ce6739b65287f9c2d09b7d002da556879b8260405161223a9190612c61565b60405180910390a25050565b82805461225290612e72565b90600052602060002090601f01602090048101928261227457600085556122bb565b82601f1061228d57805160ff19168380011785556122bb565b828001600101855582156122bb579182015b828111156122ba57825182559160200191906001019061229f565b5b5090506122c8919061230c565b5090565b5080546122d890612e72565b6000825580601f106122ea5750612309565b601f016020900490600052602060002090810190612308919061230c565b5b50565b5b8082111561232557600081600090555060010161230d565b5090565b600061233c61233784612cad565b612c7c565b90508281526020810184848401111561235457600080fd5b61235f848285612e30565b509392505050565b60008135905061237681612ffb565b92915050565b60008135905061238b81613012565b92915050565b600082601f8301126123a257600080fd5b81356123b2848260208601612329565b91505092915050565b6000602082840312156123cd57600080fd5b60006123db84828501612367565b91505092915050565b600080604083850312156123f757600080fd5b600061240585828601612367565b925050602061241685828601612367565b9150509250929050565b6000806040838503121561243357600080fd5b600061244185828601612367565b92505060206124528582860161237c565b9150509250929050565b60006020828403121561246e57600080fd5b600082013567ffffffffffffffff81111561248857600080fd5b61249484828501612391565b91505092915050565b60006124a983836124dc565b60208301905092915050565b60006124c183836124fa565b60208301905092915050565b6124d681612dde565b82525050565b6124e581612dde565b82525050565b6124f481612df0565b82525050565b61250381612dfc565b82525050565b600061251482612cdd565b61251e8185612ce8565b935061252e818560208601612e3f565b61253781612fdd565b840191505092915050565b600061254f601583612ce8565b91507f496e76616c69642070617373776f7264206861736800000000000000000000006000830152602082019050919050565b600061258f601c83612ce8565b91507f4c6f67696e2064657461696c20646f6573206e6f7420657869737473000000006000830152602082019050919050565b60006125cf601283612ce8565b91507f496e636f72726563742070617373776f726400000000000000000000000000006000830152602082019050919050565b600061260f601683612ce8565b91507f436f6d70616e79206e6f742072656769737465726564000000000000000000006000830152602082019050919050565b600061264f602383612ce8565b91507f5573657220646f65736e27742062656c6f6e6720746f20796f757220636f6d7060008301527f616e7900000000000000000000000000000000000000000000000000000000006020830152604082019050919050565b60006126b5601c83612ce8565b91507f4c6f67696e2044657461696c7320616c726561647920657869737473000000006000830152602082019050919050565b60006126f5601b83612ce8565b91507f56616c75652063616e6e6f74206265206c657373207468616e203000000000006000830152602082019050919050565b6000612735602383612ce8565b91507f5573657220646f65736e27742065786973747320696e207468697320636f6d7060008301527f616e7900000000000000000000000000000000000000000000000000000000006020830152604082019050919050565b600061279b601683612ce8565b91507f4465706f73697420736f6d6520455448206669727374000000000000000000006000830152602082019050919050565b60006127db601a83612ce8565b91507f436f6d70616e7920616c726561647920726567697374657265640000000000006000830152602082019050919050565b600061281b601783612ce8565b91507f5573657220616c726561647920726567697374657265640000000000000000006000830152602082019050919050565b600061285b602783612ce8565b91507f4f6e6c7920436f6d70616e6965732063616e207265676973746572207468656960008301527f72207573657273000000000000000000000000000000000000000000000000006020830152604082019050919050565b60006128c1601c83612ce8565b91507f436f6d70616e79206e616d652063616e6e6f7420626520656d707479000000006000830152602082019050919050565b6000612901601f83612ce8565b91507f55736572206973206e6f742063757272656e746c79206c6f6767656420696e006000830152602082019050919050565b6000612941601c83612ce8565b91507f4c6f67696e2044657461696c7320646f65736e277420657869737473000000006000830152602082019050919050565b60008201600080830154905061298981612ea4565b612993858261249d565b945050600183015490506129a681612ea4565b6129b0858261249d565b945050600283015490506129c381612ebe565b6129cd85826124b5565b94505050505050565b6129df81612e26565b82525050565b60006129f18284612974565b60608201915081905092915050565b6000602082019050612a1560008301846124cd565b92915050565b6000602082019050612a3060008301846124eb565b92915050565b6000604082019050612a4b60008301856124eb565b612a5860208301846129d6565b9392505050565b60006020820190508181036000830152612a798184612509565b905092915050565b60006020820190508181036000830152612a9a81612542565b9050919050565b60006020820190508181036000830152612aba81612582565b9050919050565b60006020820190508181036000830152612ada816125c2565b9050919050565b60006020820190508181036000830152612afa81612602565b9050919050565b60006020820190508181036000830152612b1a81612642565b9050919050565b60006020820190508181036000830152612b3a816126a8565b9050919050565b60006020820190508181036000830152612b5a816126e8565b9050919050565b60006020820190508181036000830152612b7a81612728565b9050919050565b60006020820190508181036000830152612b9a8161278e565b9050919050565b60006020820190508181036000830152612bba816127ce565b9050919050565b60006020820190508181036000830152612bda8161280e565b9050919050565b60006020820190508181036000830152612bfa8161284e565b9050919050565b60006020820190508181036000830152612c1a816128b4565b9050919050565b60006020820190508181036000830152612c3a816128f4565b9050919050565b60006020820190508181036000830152612c5a81612934565b9050919050565b6000602082019050612c7660008301846129d6565b92915050565b6000604051905081810181811067ffffffffffffffff82111715612ca357612ca2612fae565b5b8060405250919050565b600067ffffffffffffffff821115612cc857612cc7612fae565b5b601f19601f8301169050602081019050919050565b600081519050919050565b600082825260208201905092915050565b6000612d0482612e26565b9150612d0f83612e26565b9250827fffffffffffffffffffffffffffffffffffffffffffffffffffffffffffffffff03821115612d4457612d43612f21565b5b828201905092915050565b6000612d5a82612e26565b9150612d6583612e26565b925082612d7557612d74612f50565b5b828204905092915050565b6000612d8b82612e26565b9150612d9683612e26565b925082821015612da957612da8612f21565b5b828203905092915050565b600073ffffffffffffffffffffffffffffffffffffffff82169050919050565b6000819050919050565b6000612de982612e06565b9050919050565b60008115159050919050565b6000819050919050565b600073ffffffffffffffffffffffffffffffffffffffff82169050919050565b6000819050919050565b82818337600083830152505050565b60005b83811015612e5d578082015181840152602081019050612e42565b83811115612e6c576000848401525b50505050565b60006002820490506001821680612e8a57607f821691505b60208210811415612e9e57612e9d612f7f565b5b50919050565b6000612eb7612eb283612fee565b612db4565b9050919050565b6000612ed1612ecc83612fee565b612dd4565b9050919050565b6000612ee382612e26565b91507fffffffffffffffffffffffffffffffffffffffffffffffffffffffffffffffff821415612f1657612f15612f21565b5b600182019050919050565b7f4e487b7100000000000000000000000000000000000000000000000000000000600052601160045260246000fd5b7f4e487b7100000000000000000000000000000000000000000000000000000000600052601260045260246000fd5b7f4e487b7100000000000000000000000000000000000000000000000000000000600052602260045260246000fd5b7f4e487b7100000000000000000000000000000000000000000000000000000000600052604160045260246000fd5b6000601f19601f8301169050919050565b60008160001c9050919050565b61300481612dde565b811461300f57600080fd5b50565b61301b81612dfc565b811461302657600080fd5b5056fea26469706673582212203dbd95f7aebb9fffa34227dc184225c145e4ede31bf1e1cc16071e263877b36864736f6c63430008000033",
  "immutableReferences": {},
  "source": "// SPDX-License-Identifier: GPL-3.0\npragma solidity ^0.8.0;\n\nimport \"./CompanyRegistry.sol\";\n\ncontract AuthenticationServiceProvider is CompanyRegistry {\n    address public owner;\n\n    // CompanyRegistry public companyRegistry;\n\n    constructor() {\n        owner = msg.sender;\n        // companyRegistry = CompanyRegistry(_companyRegistryAddress);\n    }\n}\n",
  "sourcePath": "/Users/jingwang/IdeaProjects/blockchain-authentication-system/blockchain/contracts/AuthServiceProvide.sol",
  "compiler": {
    "name": "solc",
    "version": "0.8.0+commit.c7dfd78e.Emscripten.clang"
  },
  "schemaVersion": "3.4.16",
  "updatedAt": "2024-05-01T00:54:33.886Z",
  "networkType": "ethereum",
  "devdoc": {
    "kind": "dev",
    "methods": {},
    "version": 1
  },
  "userdoc": {
    "kind": "user",
    "methods": {},
    "version": 1
  }
}