{
  "contractName": "CompanyRegistry",
  "abi": [
    {
      "anonymous": false,
      "inputs": [
        {
          "indexed": true,
          "internalType": "address",
          "name": "companyAddress",
          "type": "address"
        }
      ],
      "name": "CompanyDeleted",
      "type": "event"
    },
    {
      "anonymous": false,
      "inputs": [
        {
          "indexed": true,
          "internalType": "address",
          "name": "companyAddress",
          "type": "address"
        },
        {
          "indexed": false,
          "internalType": "string",
          "name": "name",
          "type": "string"
        }
      ],
      "name": "CompanyRegistered",
      "type": "event"
    },
    {
      "anonymous": false,
      "inputs": [
        {
          "indexed": true,
          "internalType": "address",
          "name": "companyAddress",
          "type": "address"
        },
        {
          "indexed": false,
          "internalType": "uint256",
          "name": "amount",
          "type": "uint256"
        }
      ],
      "name": "DepositAdded",
      "type": "event"
    },
    {
      "anonymous": false,
      "inputs": [
        {
          "components": [
            {
              "internalType": "address",
              "name": "company",
              "type": "address"
            },
            {
              "internalType": "address",
              "name": "walletAddress",
              "type": "address"
            },
            {
              "internalType": "bytes32",
              "name": "passwordHash",
              "type": "bytes32"
            }
          ],
          "indexed": true,
          "internalType": "struct CompanyRegistry.User",
          "name": "user",
          "type": "tuple"
        }
      ],
      "name": "UserLoggedIn",
      "type": "event"
    },
    {
      "anonymous": false,
      "inputs": [
        {
          "indexed": true,
          "internalType": "address",
          "name": "companyAddress",
          "type": "address"
        },
        {
          "indexed": true,
          "internalType": "address",
          "name": "userAddress",
          "type": "address"
        }
      ],
      "name": "UserRegistered",
      "type": "event"
    },
    {
      "anonymous": false,
      "inputs": [
        {
          "indexed": true,
          "internalType": "address",
          "name": "userAddress",
          "type": "address"
        },
        {
          "indexed": false,
          "internalType": "uint256",
          "name": "amount",
          "type": "uint256"
        }
      ],
      "name": "UserRewarded",
      "type": "event"
    },
    {
      "inputs": [
        {
          "internalType": "address",
          "name": "walletAddress",
          "type": "address"
        }
      ],
      "name": "doesLoginExist",
      "outputs": [
        {
          "internalType": "bool",
          "name": "",
          "type": "bool"
        }
      ],
      "stateMutability": "view",
      "type": "function"
    },
    {
      "inputs": [
        {
          "internalType": "address",
          "name": "walletAddress",
          "type": "address"
        },
        {
          "internalType": "bytes32",
          "name": "passwordHash",
          "type": "bytes32"
        }
      ],
      "name": "loginUser",
      "outputs": [
        {
          "internalType": "bool",
          "name": "",
          "type": "bool"
        }
      ],
      "stateMutability": "nonpayable",
      "type": "function"
    },
    {
      "inputs": [
        {
          "internalType": "address",
          "name": "CompanyAddress",
          "type": "address"
        },
        {
          "internalType": "address",
          "name": "userAddress",
          "type": "address"
        }
      ],
      "name": "gettotalLoggedInDays",
      "outputs": [
        {
          "internalType": "uint256",
          "name": "",
          "type": "uint256"
        }
      ],
      "stateMutability": "view",
      "type": "function"
    },
    {
      "inputs": [
        {
          "internalType": "address",
          "name": "CompanyAddress",
          "type": "address"
        },
        {
          "internalType": "address",
          "name": "userAddress",
          "type": "address"
        }
      ],
      "name": "getIsLoggedInStatus",
      "outputs": [
        {
          "internalType": "bool",
          "name": "",
          "type": "bool"
        }
      ],
      "stateMutability": "view",
      "type": "function"
    },
    {
      "inputs": [
        {
          "internalType": "string",
          "name": "name",
          "type": "string"
        }
      ],
      "name": "registerCompany",
      "outputs": [],
      "stateMutability": "nonpayable",
      "type": "function"
    },
    {
      "inputs": [],
      "name": "addDeposit",
      "outputs": [],
      "stateMutability": "payable",
      "type": "function"
    },
    {
      "inputs": [],
      "name": "deleteCompany",
      "outputs": [],
      "stateMutability": "nonpayable",
      "type": "function"
    },
    {
      "inputs": [
        {
          "internalType": "address",
          "name": "walletAddress",
          "type": "address"
        },
        {
          "internalType": "bytes32",
          "name": "passwordHash",
          "type": "bytes32"
        }
      ],
      "name": "registerUser",
      "outputs": [],
      "stateMutability": "nonpayable",
      "type": "function"
    },
    {
      "inputs": [],
      "name": "getCompanyDeposit",
      "outputs": [
        {
          "internalType": "uint256",
          "name": "",
          "type": "uint256"
        }
      ],
      "stateMutability": "view",
      "type": "function"
    },
    {
      "inputs": [
        {
          "internalType": "address",
          "name": "walletAddress",
          "type": "address"
        }
      ],
      "name": "lastLoginTime",
      "outputs": [
        {
          "internalType": "uint256",
          "name": "",
          "type": "uint256"
        }
      ],
      "stateMutability": "view",
      "type": "function"
    },
    {
      "inputs": [
        {
          "internalType": "address",
          "name": "userAddress",
          "type": "address"
        }
      ],
      "name": "updateLoggedInStatus",
      "outputs": [
        {
          "internalType": "bool",
          "name": "",
          "type": "bool"
        },
        {
          "internalType": "uint256",
          "name": "",
          "type": "uint256"
        }
      ],
      "stateMutability": "nonpayable",
      "type": "function"
    },
    {
      "inputs": [
        {
          "internalType": "address",
          "name": "walletAddress",
          "type": "address"
        }
      ],
      "name": "logoutUser",
      "outputs": [],
      "stateMutability": "nonpayable",
      "type": "function"
    },
    {
      "inputs": [],
      "name": "getRegisteredCompanyName",
      "outputs": [
        {
          "internalType": "string",
          "name": "",
          "type": "string"
        }
      ],
      "stateMutability": "view",
      "type": "function"
    }
  ],
  "bytecode": "0x608060405234801561001057600080fd5b50612fc9806100206000396000f3fe6080604052600436106100c15760003560e01c80637f191b8d1161007f578063c89f883e11610059578063c89f883e14610259578063cc6911b614610296578063d7e0b6e3146102c1578063f7a04903146102ea576100c1565b80637f191b8d146101b3578063a73779a6146101de578063b4bcca031461021c576100c1565b8062544194146100c657806309df5060146100ef57806319abc6a8146101185780633f3c2ad2146101555780634a58db19146101925780635045499c1461019c575b600080fd5b3480156100d257600080fd5b506100ed60048036038101906100e891906123f0565b610327565b005b3480156100fb57600080fd5b506101166004803603810190610111919061234f565b6104dd565b005b34801561012457600080fd5b5061013f600480360381019061013a9190612378565b610583565b60405161014c9190612bcb565b60405180910390f35b34801561016157600080fd5b5061017c6004803603810190610177919061234f565b610802565b6040516101899190612985565b60405180910390f35b61019a610a89565b005b3480156101a857600080fd5b506101b1610c06565b005b3480156101bf57600080fd5b506101c8610dd7565b6040516101d591906129c9565b60405180910390f35b3480156101ea57600080fd5b506102056004803603810190610200919061234f565b610ea9565b6040516102139291906129a0565b60405180910390f35b34801561022857600080fd5b50610243600480360381019061023e919061234f565b611212565b6040516102509190612bcb565b60405180910390f35b34801561026557600080fd5b50610280600480360381019061027b9190612378565b611448565b60405161028d9190612985565b60405180910390f35b3480156102a257600080fd5b506102ab6116d4565b6040516102b89190612bcb565b60405180910390f35b3480156102cd57600080fd5b506102e860048036038101906102e391906123b4565b6117ae565b005b3480156102f657600080fd5b50610311600480360381019061030c91906123b4565b611bb6565b60405161031e9190612985565b60405180910390f35b600081511161036b576040517f08c379a000000000000000000000000000000000000000000000000000000000815260040161036290612b6b565b60405180910390fd5b6000600160003373ffffffffffffffffffffffffffffffffffffffff1673ffffffffffffffffffffffffffffffffffffffff16815260200190815260200160002060000180546103ba90612ddc565b9050146103fc576040517f08c379a00000000000000000000000000000000000000000000000000000000081526004016103f390612b0b565b60405180910390fd5b6040518060600160405280828152602001600081526020016000815250600160003373ffffffffffffffffffffffffffffffffffffffff1673ffffffffffffffffffffffffffffffffffffffff16815260200190815260200160002060008201518160000190805190602001906104749291906121da565b5060208201518160010155604082015181600201559050503373ffffffffffffffffffffffffffffffffffffffff167f76686aa361308f4a08557cca1a847299ce61e5602a3495cd359a599a1dca438c826040516104d291906129c9565b60405180910390a250565b6104e681610802565b610525576040517f08c379a000000000000000000000000000000000000000000000000000000000815260040161051c90612b8b565b60405180910390fd5b6000600260008373ffffffffffffffffffffffffffffffffffffffff1673ffffffffffffffffffffffffffffffffffffffff16815260200190815260200160002060050160006101000a81548160ff02191690831515021790555050565b600080600160008573ffffffffffffffffffffffffffffffffffffffff1673ffffffffffffffffffffffffffffffffffffffff16815260200190815260200160002060000180546105d390612ddc565b905011610615576040517f08c379a000000000000000000000000000000000000000000000000000000000815260040161060c90612a4b565b60405180910390fd5b662386f26fc10000600160003373ffffffffffffffffffffffffffffffffffffffff1673ffffffffffffffffffffffffffffffffffffffff16815260200190815260200160002060010154116106a0576040517f08c379a000000000000000000000000000000000000000000000000000000000815260040161069790612aeb565b60405180910390fd5b8273ffffffffffffffffffffffffffffffffffffffff166000808473ffffffffffffffffffffffffffffffffffffffff1673ffffffffffffffffffffffffffffffffffffffff16815260200190815260200160002060000160009054906101000a900473ffffffffffffffffffffffffffffffffffffffff1673ffffffffffffffffffffffffffffffffffffffff161461076f576040517f08c379a000000000000000000000000000000000000000000000000000000000815260040161076690612acb565b60405180910390fd5b61077882610802565b6107b7576040517f08c379a00000000000000000000000000000000000000000000000000000000081526004016107ae90612a0b565b60405180910390fd5b600260008373ffffffffffffffffffffffffffffffffffffffff1673ffffffffffffffffffffffffffffffffffffffff16815260200190815260200160002060040154905092915050565b600080600160003373ffffffffffffffffffffffffffffffffffffffff1673ffffffffffffffffffffffffffffffffffffffff168152602001908152602001600020600001805461085290612ddc565b905011610894576040517f08c379a000000000000000000000000000000000000000000000000000000000815260040161088b90612a4b565b60405180910390fd5b662386f26fc10000600160003373ffffffffffffffffffffffffffffffffffffffff1673ffffffffffffffffffffffffffffffffffffffff168152602001908152602001600020600101541161091f576040517f08c379a000000000000000000000000000000000000000000000000000000000815260040161091690612aeb565b60405180910390fd5b3373ffffffffffffffffffffffffffffffffffffffff166000808473ffffffffffffffffffffffffffffffffffffffff1673ffffffffffffffffffffffffffffffffffffffff16815260200190815260200160002060000160009054906101000a900473ffffffffffffffffffffffffffffffffffffffff1673ffffffffffffffffffffffffffffffffffffffff16146109ee576040517f08c379a00000000000000000000000000000000000000000000000000000000081526004016109e590612a6b565b60405180910390fd5b8173ffffffffffffffffffffffffffffffffffffffff16600260008473ffffffffffffffffffffffffffffffffffffffff1673ffffffffffffffffffffffffffffffffffffffff16815260200190815260200160002060000160010160009054906101000a900473ffffffffffffffffffffffffffffffffffffffff1673ffffffffffffffffffffffffffffffffffffffff16149050919050565b6000600160003373ffffffffffffffffffffffffffffffffffffffff1673ffffffffffffffffffffffffffffffffffffffff1681526020019081526020016000206000018054610ad890612ddc565b905011610b1a576040517f08c379a0000000000000000000000000000000000000000000000000000000008152600401610b1190612a4b565b60405180910390fd5b60003411610b5d576040517f08c379a0000000000000000000000000000000000000000000000000000000008152600401610b5490612aab565b60405180910390fd5b34600160003373ffffffffffffffffffffffffffffffffffffffff1673ffffffffffffffffffffffffffffffffffffffff1681526020019081526020016000206001016000828254610baf9190612c63565b925050819055503373ffffffffffffffffffffffffffffffffffffffff167fa2a2db73af12c9f5bef6303364d44e78f97e992c353cd8659f3474c471427e9b34604051610bfc9190612bcb565b60405180910390a2565b6000600160003373ffffffffffffffffffffffffffffffffffffffff1673ffffffffffffffffffffffffffffffffffffffff1681526020019081526020016000206000018054610c5590612ddc565b905011610c97576040517f08c379a0000000000000000000000000000000000000000000000000000000008152600401610c8e90612a4b565b60405180910390fd5b6000600160003373ffffffffffffffffffffffffffffffffffffffff1673ffffffffffffffffffffffffffffffffffffffff168152602001908152602001600020600101549050600160003373ffffffffffffffffffffffffffffffffffffffff1673ffffffffffffffffffffffffffffffffffffffff16815260200190815260200160002060008082016000610d2e9190612260565b6001820160009055600282016000905550503373ffffffffffffffffffffffffffffffffffffffff167f2564dc12f5c7d4be57c9d0417c313a76d08624ac131a3772f9abeedff476161160405160405180910390a26000811115610dd4573373ffffffffffffffffffffffffffffffffffffffff166108fc829081150290604051600060405180830381858888f19350505050158015610dd2573d6000803e3d6000fd5b505b50565b6060600160003373ffffffffffffffffffffffffffffffffffffffff1673ffffffffffffffffffffffffffffffffffffffff1681526020019081526020016000206000018054610e2690612ddc565b80601f0160208091040260200160405190810160405280929190818152602001828054610e5290612ddc565b8015610e9f5780601f10610e7457610100808354040283529160200191610e9f565b820191906000526020600020905b815481529060010190602001808311610e8257829003601f168201915b5050505050905090565b600080610eb583610802565b610ef4576040517f08c379a0000000000000000000000000000000000000000000000000000000008152600401610eeb90612bab565b60405180910390fd5b60006201518042610f059190612cb9565b9050600062015180600260008773ffffffffffffffffffffffffffffffffffffffff1673ffffffffffffffffffffffffffffffffffffffff16815260200190815260200160002060030154610f5a9190612cb9565b90508082111561107c5760018183610f729190612cea565b1415610fd7576001600260008773ffffffffffffffffffffffffffffffffffffffff1673ffffffffffffffffffffffffffffffffffffffff1681526020019081526020016000206004016000828254610fcb9190612c63565b92505081905550611034565b60028183610fe59190612cea565b10611033576001600260008773ffffffffffffffffffffffffffffffffffffffff1673ffffffffffffffffffffffffffffffffffffffff168152602001908152602001600020600401819055505b5b42600260008773ffffffffffffffffffffffffffffffffffffffff1673ffffffffffffffffffffffffffffffffffffffff168152602001908152602001600020600301819055505b6001600260008773ffffffffffffffffffffffffffffffffffffffff1673ffffffffffffffffffffffffffffffffffffffff16815260200190815260200160002060050160006101000a81548160ff0219169083151502179055506007600260008773ffffffffffffffffffffffffffffffffffffffff1673ffffffffffffffffffffffffffffffffffffffff1681526020019081526020016000206004015414156111745761112b85611fe3565b6000600260008773ffffffffffffffffffffffffffffffffffffffff1673ffffffffffffffffffffffffffffffffffffffff168152602001908152602001600020600401819055505b600260008673ffffffffffffffffffffffffffffffffffffffff1673ffffffffffffffffffffffffffffffffffffffff16815260200190815260200160002060050160009054906101000a900460ff16600260008773ffffffffffffffffffffffffffffffffffffffff1673ffffffffffffffffffffffffffffffffffffffff16815260200190815260200160002060040154935093505050915091565b600080600160003373ffffffffffffffffffffffffffffffffffffffff1673ffffffffffffffffffffffffffffffffffffffff168152602001908152602001600020600001805461126290612ddc565b9050116112a4576040517f08c379a000000000000000000000000000000000000000000000000000000000815260040161129b90612a4b565b60405180910390fd5b662386f26fc10000600160003373ffffffffffffffffffffffffffffffffffffffff1673ffffffffffffffffffffffffffffffffffffffff168152602001908152602001600020600101541161132f576040517f08c379a000000000000000000000000000000000000000000000000000000000815260040161132690612aeb565b60405180910390fd5b3373ffffffffffffffffffffffffffffffffffffffff166000808473ffffffffffffffffffffffffffffffffffffffff1673ffffffffffffffffffffffffffffffffffffffff16815260200190815260200160002060000160009054906101000a900473ffffffffffffffffffffffffffffffffffffffff1673ffffffffffffffffffffffffffffffffffffffff16146113fe576040517f08c379a00000000000000000000000000000000000000000000000000000000081526004016113f590612a6b565b60405180910390fd5b600260008373ffffffffffffffffffffffffffffffffffffffff1673ffffffffffffffffffffffffffffffffffffffff168152602001908152602001600020600301549050919050565b600080600160008573ffffffffffffffffffffffffffffffffffffffff1673ffffffffffffffffffffffffffffffffffffffff168152602001908152602001600020600001805461149890612ddc565b9050116114da576040517f08c379a00000000000000000000000000000000000000000000000000000000081526004016114d190612a4b565b60405180910390fd5b662386f26fc10000600160008573ffffffffffffffffffffffffffffffffffffffff1673ffffffffffffffffffffffffffffffffffffffff1681526020019081526020016000206001015411611565576040517f08c379a000000000000000000000000000000000000000000000000000000000815260040161155c90612aeb565b60405180910390fd5b8273ffffffffffffffffffffffffffffffffffffffff166000808473ffffffffffffffffffffffffffffffffffffffff1673ffffffffffffffffffffffffffffffffffffffff16815260200190815260200160002060000160009054906101000a900473ffffffffffffffffffffffffffffffffffffffff1673ffffffffffffffffffffffffffffffffffffffff1614611634576040517f08c379a000000000000000000000000000000000000000000000000000000000815260040161162b90612acb565b60405180910390fd5b61163d82610802565b61167c576040517f08c379a000000000000000000000000000000000000000000000000000000000815260040161167390612a0b565b60405180910390fd5b600260008373ffffffffffffffffffffffffffffffffffffffff1673ffffffffffffffffffffffffffffffffffffffff16815260200190815260200160002060050160009054906101000a900460ff16905092915050565b600080600160003373ffffffffffffffffffffffffffffffffffffffff1673ffffffffffffffffffffffffffffffffffffffff168152602001908152602001600020600001805461172490612ddc565b905011611766576040517f08c379a000000000000000000000000000000000000000000000000000000000815260040161175d90612a4b565b60405180910390fd5b600160003373ffffffffffffffffffffffffffffffffffffffff1673ffffffffffffffffffffffffffffffffffffffff16815260200190815260200160002060010154905090565b6000801b8114156117f4576040517f08c379a00000000000000000000000000000000000000000000000000000000081526004016117eb906129eb565b60405180910390fd5b6000600160003373ffffffffffffffffffffffffffffffffffffffff1673ffffffffffffffffffffffffffffffffffffffff168152602001908152602001600020600001805461184390612ddc565b905011611885576040517f08c379a000000000000000000000000000000000000000000000000000000000815260040161187c90612b4b565b60405180910390fd5b662386f26fc10000600160003373ffffffffffffffffffffffffffffffffffffffff1673ffffffffffffffffffffffffffffffffffffffff1681526020019081526020016000206001015411611910576040517f08c379a000000000000000000000000000000000000000000000000000000000815260040161190790612aeb565b60405180910390fd5b8173ffffffffffffffffffffffffffffffffffffffff166000808473ffffffffffffffffffffffffffffffffffffffff1673ffffffffffffffffffffffffffffffffffffffff16815260200190815260200160002060010160009054906101000a900473ffffffffffffffffffffffffffffffffffffffff1673ffffffffffffffffffffffffffffffffffffffff1614156119e0576040517f08c379a00000000000000000000000000000000000000000000000000000000081526004016119d790612b2b565b60405180910390fd5b60405180606001604052803373ffffffffffffffffffffffffffffffffffffffff1681526020018373ffffffffffffffffffffffffffffffffffffffff168152602001828152506000808473ffffffffffffffffffffffffffffffffffffffff1673ffffffffffffffffffffffffffffffffffffffff16815260200190815260200160002060008201518160000160006101000a81548173ffffffffffffffffffffffffffffffffffffffff021916908373ffffffffffffffffffffffffffffffffffffffff16021790555060208201518160010160006101000a81548173ffffffffffffffffffffffffffffffffffffffff021916908373ffffffffffffffffffffffffffffffffffffffff16021790555060408201518160020155905050600160003373ffffffffffffffffffffffffffffffffffffffff1673ffffffffffffffffffffffffffffffffffffffff1681526020019081526020016000206002016000815480929190611b5390612e42565b91905055508173ffffffffffffffffffffffffffffffffffffffff163373ffffffffffffffffffffffffffffffffffffffff167f2138b9314634f9fdd5e49bee3eaf17ca557b6637524d0db759711c3bfcd3d85060405160405180910390a35050565b6000611bc183610802565b15611c01576040517f08c379a0000000000000000000000000000000000000000000000000000000008152600401611bf890612a8b565b60405180910390fd5b6000801b821415611c47576040517f08c379a0000000000000000000000000000000000000000000000000000000008152600401611c3e906129eb565b60405180910390fd5b816000808573ffffffffffffffffffffffffffffffffffffffff1673ffffffffffffffffffffffffffffffffffffffff1681526020019081526020016000206002015414611cca576040517f08c379a0000000000000000000000000000000000000000000000000000000008152600401611cc190612a2b565b60405180910390fd5b60008060008573ffffffffffffffffffffffffffffffffffffffff1673ffffffffffffffffffffffffffffffffffffffff1681526020019081526020016000206040518060600160405290816000820160009054906101000a900473ffffffffffffffffffffffffffffffffffffffff1673ffffffffffffffffffffffffffffffffffffffff1673ffffffffffffffffffffffffffffffffffffffff1681526020016001820160009054906101000a900473ffffffffffffffffffffffffffffffffffffffff1673ffffffffffffffffffffffffffffffffffffffff1673ffffffffffffffffffffffffffffffffffffffff168152602001600282015481525050905060405180608001604052808281526020014281526020016001815260200160011515815250600260008673ffffffffffffffffffffffffffffffffffffffff1673ffffffffffffffffffffffffffffffffffffffff16815260200190815260200160002060008201518160000160008201518160000160006101000a81548173ffffffffffffffffffffffffffffffffffffffff021916908373ffffffffffffffffffffffffffffffffffffffff16021790555060208201518160010160006101000a81548173ffffffffffffffffffffffffffffffffffffffff021916908373ffffffffffffffffffffffffffffffffffffffff160217905550604082015181600201555050602082015181600301556040820151816004015560608201518160050160006101000a81548160ff0219169083151502179055509050506000808573ffffffffffffffffffffffffffffffffffffffff1673ffffffffffffffffffffffffffffffffffffffff168152602001908152602001600020604051611f56919061296a565b60405180910390207fc3e258c2735e50ca59d445076e61f3e568466d65196515d5fa3cef1518fff1da60405160405180910390a2600260008573ffffffffffffffffffffffffffffffffffffffff1673ffffffffffffffffffffffffffffffffffffffff16815260200190815260200160002060050160009054906101000a900460ff1691505092915050565b6000600160003373ffffffffffffffffffffffffffffffffffffffff1673ffffffffffffffffffffffffffffffffffffffff16815260200190815260200160002060020154600160003373ffffffffffffffffffffffffffffffffffffffff1673ffffffffffffffffffffffffffffffffffffffff168152602001908152602001600020600101546120759190612cb9565b9050600260008373ffffffffffffffffffffffffffffffffffffffff1673ffffffffffffffffffffffffffffffffffffffff16815260200190815260200160002060000160010160009054906101000a900473ffffffffffffffffffffffffffffffffffffffff1673ffffffffffffffffffffffffffffffffffffffff166108fc829081150290604051600060405180830381858888f19350505050158015612122573d6000803e3d6000fd5b50600260008373ffffffffffffffffffffffffffffffffffffffff1673ffffffffffffffffffffffffffffffffffffffff16815260200190815260200160002060000160010160009054906101000a900473ffffffffffffffffffffffffffffffffffffffff1673ffffffffffffffffffffffffffffffffffffffff167fe366ef68d2c0620e9e4c5074fd7ad0ce6739b65287f9c2d09b7d002da556879b826040516121ce9190612bcb565b60405180910390a25050565b8280546121e690612ddc565b90600052602060002090601f016020900481019282612208576000855561224f565b82601f1061222157805160ff191683800117855561224f565b8280016001018555821561224f579182015b8281111561224e578251825591602001919060010190612233565b5b50905061225c91906122a0565b5090565b50805461226c90612ddc565b6000825580601f1061227e575061229d565b601f01602090049060005260206000209081019061229c91906122a0565b5b50565b5b808211156122b95760008160009055506001016122a1565b5090565b60006122d06122cb84612c17565b612be6565b9050828152602081018484840111156122e857600080fd5b6122f3848285612d9a565b509392505050565b60008135905061230a81612f65565b92915050565b60008135905061231f81612f7c565b92915050565b600082601f83011261233657600080fd5b81356123468482602086016122bd565b91505092915050565b60006020828403121561236157600080fd5b600061236f848285016122fb565b91505092915050565b6000806040838503121561238b57600080fd5b6000612399858286016122fb565b92505060206123aa858286016122fb565b9150509250929050565b600080604083850312156123c757600080fd5b60006123d5858286016122fb565b92505060206123e685828601612310565b9150509250929050565b60006020828403121561240257600080fd5b600082013567ffffffffffffffff81111561241c57600080fd5b61242884828501612325565b91505092915050565b600061243d8383612461565b60208301905092915050565b6000612455838361247f565b60208301905092915050565b61246a81612d48565b82525050565b61247981612d5a565b82525050565b61248881612d66565b82525050565b600061249982612c47565b6124a38185612c52565b93506124b3818560208601612da9565b6124bc81612f47565b840191505092915050565b60006124d4601583612c52565b91507f496e76616c69642070617373776f7264206861736800000000000000000000006000830152602082019050919050565b6000612514601c83612c52565b91507f4c6f67696e2064657461696c20646f6573206e6f7420657869737473000000006000830152602082019050919050565b6000612554601283612c52565b91507f496e636f72726563742070617373776f726400000000000000000000000000006000830152602082019050919050565b6000612594601683612c52565b91507f436f6d70616e79206e6f742072656769737465726564000000000000000000006000830152602082019050919050565b60006125d4602383612c52565b91507f5573657220646f65736e27742062656c6f6e6720746f20796f757220636f6d7060008301527f616e7900000000000000000000000000000000000000000000000000000000006020830152604082019050919050565b600061263a601c83612c52565b91507f4c6f67696e2044657461696c7320616c726561647920657869737473000000006000830152602082019050919050565b600061267a601b83612c52565b91507f56616c75652063616e6e6f74206265206c657373207468616e203000000000006000830152602082019050919050565b60006126ba602383612c52565b91507f5573657220646f65736e27742065786973747320696e207468697320636f6d7060008301527f616e7900000000000000000000000000000000000000000000000000000000006020830152604082019050919050565b6000612720601683612c52565b91507f4465706f73697420736f6d6520455448206669727374000000000000000000006000830152602082019050919050565b6000612760601a83612c52565b91507f436f6d70616e7920616c726561647920726567697374657265640000000000006000830152602082019050919050565b60006127a0601783612c52565b91507f5573657220616c726561647920726567697374657265640000000000000000006000830152602082019050919050565b60006127e0602783612c52565b91507f4f6e6c7920436f6d70616e6965732063616e207265676973746572207468656960008301527f72207573657273000000000000000000000000000000000000000000000000006020830152604082019050919050565b6000612846601c83612c52565b91507f436f6d70616e79206e616d652063616e6e6f7420626520656d707479000000006000830152602082019050919050565b6000612886601f83612c52565b91507f55736572206973206e6f742063757272656e746c79206c6f6767656420696e006000830152602082019050919050565b60006128c6601c83612c52565b91507f4c6f67696e2044657461696c7320646f65736e277420657869737473000000006000830152602082019050919050565b60008201600080830154905061290e81612e0e565b6129188582612431565b9450506001830154905061292b81612e0e565b6129358582612431565b9450506002830154905061294881612e28565b6129528582612449565b94505050505050565b61296481612d90565b82525050565b600061297682846128f9565b60608201915081905092915050565b600060208201905061299a6000830184612470565b92915050565b60006040820190506129b56000830185612470565b6129c2602083018461295b565b9392505050565b600060208201905081810360008301526129e3818461248e565b905092915050565b60006020820190508181036000830152612a04816124c7565b9050919050565b60006020820190508181036000830152612a2481612507565b9050919050565b60006020820190508181036000830152612a4481612547565b9050919050565b60006020820190508181036000830152612a6481612587565b9050919050565b60006020820190508181036000830152612a84816125c7565b9050919050565b60006020820190508181036000830152612aa48161262d565b9050919050565b60006020820190508181036000830152612ac48161266d565b9050919050565b60006020820190508181036000830152612ae4816126ad565b9050919050565b60006020820190508181036000830152612b0481612713565b9050919050565b60006020820190508181036000830152612b2481612753565b9050919050565b60006020820190508181036000830152612b4481612793565b9050919050565b60006020820190508181036000830152612b64816127d3565b9050919050565b60006020820190508181036000830152612b8481612839565b9050919050565b60006020820190508181036000830152612ba481612879565b9050919050565b60006020820190508181036000830152612bc4816128b9565b9050919050565b6000602082019050612be0600083018461295b565b92915050565b6000604051905081810181811067ffffffffffffffff82111715612c0d57612c0c612f18565b5b8060405250919050565b600067ffffffffffffffff821115612c3257612c31612f18565b5b601f19601f8301169050602081019050919050565b600081519050919050565b600082825260208201905092915050565b6000612c6e82612d90565b9150612c7983612d90565b9250827fffffffffffffffffffffffffffffffffffffffffffffffffffffffffffffffff03821115612cae57612cad612e8b565b5b828201905092915050565b6000612cc482612d90565b9150612ccf83612d90565b925082612cdf57612cde612eba565b5b828204905092915050565b6000612cf582612d90565b9150612d0083612d90565b925082821015612d1357612d12612e8b565b5b828203905092915050565b600073ffffffffffffffffffffffffffffffffffffffff82169050919050565b6000819050919050565b6000612d5382612d70565b9050919050565b60008115159050919050565b6000819050919050565b600073ffffffffffffffffffffffffffffffffffffffff82169050919050565b6000819050919050565b82818337600083830152505050565b60005b83811015612dc7578082015181840152602081019050612dac565b83811115612dd6576000848401525b50505050565b60006002820490506001821680612df457607f821691505b60208210811415612e0857612e07612ee9565b5b50919050565b6000612e21612e1c83612f58565b612d1e565b9050919050565b6000612e3b612e3683612f58565b612d3e565b9050919050565b6000612e4d82612d90565b91507fffffffffffffffffffffffffffffffffffffffffffffffffffffffffffffffff821415612e8057612e7f612e8b565b5b600182019050919050565b7f4e487b7100000000000000000000000000000000000000000000000000000000600052601160045260246000fd5b7f4e487b7100000000000000000000000000000000000000000000000000000000600052601260045260246000fd5b7f4e487b7100000000000000000000000000000000000000000000000000000000600052602260045260246000fd5b7f4e487b7100000000000000000000000000000000000000000000000000000000600052604160045260246000fd5b6000601f19601f8301169050919050565b60008160001c9050919050565b612f6e81612d48565b8114612f7957600080fd5b50565b612f8581612d66565b8114612f9057600080fd5b5056fea2646970667358221220f827183c53e0db1ab729fec5f1cb283cd05b692af5766d05d22f29f49d5bedd564736f6c63430008000033",
  "immutableReferences": {},
  "source": "    // SPDX-License-Identifier: MIT\n    pragma solidity ^0.8.0;\n\n    contract CompanyRegistry {\n        struct User {\n            address company;\n            address walletAddress;\n            bytes32 passwordHash;\n        }\n        struct Company {\n            string name;\n            uint256 deposit;\n            uint256 totalUsers;\n        }\n\n        struct Login {\n            User user;\n            uint256 lastLoginTime;\n            uint256 totalLoggedInDays;\n            bool isLoggedIn;\n        }\n        mapping(address => User) private userMap;\n        mapping(address => Company) private companies;\n        mapping(address => Login) private LoginDetails;\n\n        event CompanyRegistered(address indexed companyAddress, string name);\n        event DepositAdded(address indexed companyAddress, uint256 amount);\n        event CompanyDeleted(address indexed companyAddress);\n        event UserLoggedIn(User indexed user);\n        event UserRewarded(address indexed userAddress, uint256 amount);\n        event UserRegistered(\n            address indexed companyAddress,\n            address indexed userAddress\n        );\n\n        function doesLoginExist(address walletAddress) public view returns (bool) {\n            require(\n                bytes(companies[msg.sender].name).length > 0,\n                \"Company not registered\"\n            );\n            require(\n                companies[msg.sender].deposit > 10000000000000000 wei,\n                \"Deposit some ETH first\"\n            );\n            require(\n                userMap[walletAddress].company == msg.sender,\n                \"User doesn't belong to your company\"\n            );\n\n            return LoginDetails[walletAddress].user.walletAddress == walletAddress;\n        }\n\n        function loginUser(address walletAddress, bytes32 passwordHash) public returns(bool) {\n            require(!doesLoginExist(walletAddress), \"Login Details already exists\");\n            require(passwordHash != 0, \"Invalid password hash\");\n            require(\n                userMap[walletAddress].passwordHash == passwordHash,\n                \"Incorrect password\"\n            );\n            User memory userInfo = userMap[walletAddress];\n            LoginDetails[walletAddress] = Login({\n                user: userInfo,\n                lastLoginTime: block.timestamp,\n                totalLoggedInDays: 1,\n                isLoggedIn: true\n            });\n            emit UserLoggedIn(userMap[walletAddress]);\n            return  LoginDetails[walletAddress].isLoggedIn;\n\n        }\n\n        // function checkForRewards() public {}\n        function gettotalLoggedInDays(address CompanyAddress, address userAddress)\n            public\n            view\n            returns (uint256)\n        {\n            require(\n                bytes(companies[CompanyAddress].name).length > 0,\n                \"Company not registered\"\n            );\n            require(\n                companies[msg.sender].deposit > 10000000000000000 wei,\n                \"Deposit some ETH first\"\n            );\n            require(\n                userMap[userAddress].company == CompanyAddress,\n                \"User doesn't exists in this company\"\n            );\n            require(doesLoginExist(userAddress), \"Login detail does not exists\");\n            return LoginDetails[userAddress].totalLoggedInDays;\n        }\n\n        function getIsLoggedInStatus(address CompanyAddress, address userAddress)\n            public\n            view\n            returns (bool)\n        {\n            require(\n                bytes(companies[CompanyAddress].name).length > 0,\n                \"Company not registered\"\n            );\n            require(\n                companies[CompanyAddress].deposit > 10000000000000000 wei,\n                \"Deposit some ETH first\"\n            );\n\n            require(\n                userMap[userAddress].company == CompanyAddress,\n                \"User doesn't exists in this company\"\n            );\n            require(doesLoginExist(userAddress), \"Login detail does not exists\");\n            return LoginDetails[userAddress].isLoggedIn;\n        }\n\n        function registerCompany(string memory name) public {\n            require(bytes(name).length > 0, \"Company name cannot be empty\");\n            require(\n                bytes(companies[msg.sender].name).length == 0,\n                \"Company already registered\"\n            );\n            companies[msg.sender] = Company(name, 0, 0);\n            emit CompanyRegistered(msg.sender, name);\n        }\n\n        function addDeposit() public payable {\n            require(\n                bytes(companies[msg.sender].name).length > 0,\n                \"Company not registered\"\n            );\n            require(msg.value > 0, \"Value cannot be less than 0\");\n            companies[msg.sender].deposit += msg.value;\n            emit DepositAdded(msg.sender, msg.value);\n        }\n\n        function deleteCompany() public {\n            require(\n                bytes(companies[msg.sender].name).length > 0,\n                \"Company not registered\"\n            );\n            uint256 balance = companies[msg.sender].deposit;\n            delete companies[msg.sender];\n            emit CompanyDeleted(msg.sender);\n            if (balance > 0) {\n                payable(msg.sender).transfer(balance);\n            }\n        }\n\n        function registerUser(address walletAddress, bytes32 passwordHash) public {\n            require(passwordHash != 0, \"Invalid password hash\");\n            require(\n                bytes(companies[msg.sender].name).length > 0,\n                \"Only Companies can register their users\"\n            );\n            require(\n                companies[msg.sender].deposit > 10000000000000000 wei,\n                \"Deposit some ETH first\"\n            );\n            require(\n                userMap[walletAddress].walletAddress != walletAddress,\n                \"User already registered\"\n            );\n\n            userMap[walletAddress] = User(msg.sender, walletAddress, passwordHash);\n            companies[msg.sender].totalUsers++;\n            emit UserRegistered(msg.sender, walletAddress);\n        }\n\n        function getCompanyDeposit() public view returns (uint256) {\n            require(\n                bytes(companies[msg.sender].name).length > 0,\n                \"Company not registered\"\n            );\n            return companies[msg.sender].deposit;\n        }\n\n        function lastLoginTime(address walletAddress)\n            public\n            view\n            returns (uint256)\n        {\n            require(\n                bytes(companies[msg.sender].name).length > 0,\n                \"Company not registered\"\n            );\n            require(\n                companies[msg.sender].deposit > 10000000000000000 wei,\n                \"Deposit some ETH first\"\n            );\n            require(\n                userMap[walletAddress].company == msg.sender,\n                \"User doesn't belong to your company\"\n            );\n\n            return (LoginDetails[walletAddress].lastLoginTime);\n        }\n\n        function giveReward(address userAddress) private {\n            uint256 rewardAmount = companies[msg.sender].deposit /\n                companies[msg.sender].totalUsers;\n            payable(LoginDetails[userAddress].user.walletAddress).transfer(\n                rewardAmount\n            );\n            emit UserRewarded(\n                LoginDetails[userAddress].user.walletAddress,\n                rewardAmount\n            );\n        }\n\n        //Update login status\n        function updateLoggedInStatus(address userAddress)\n            public\n            returns (bool, uint256)\n        {\n            require(doesLoginExist(userAddress), \"Login Details doesn't exists\");\n            uint256 currentDay = block.timestamp / 1 days;\n            uint256 lastLoginDay = LoginDetails[userAddress].lastLoginTime / 1 days;\n            if (currentDay > lastLoginDay) {\n                if (currentDay - lastLoginDay == 1) {\n                    LoginDetails[userAddress].totalLoggedInDays += 1;\n                } else if (currentDay - lastLoginDay >= 2) {\n                    LoginDetails[userAddress].totalLoggedInDays = 1;\n                }\n                LoginDetails[userAddress].lastLoginTime = block.timestamp;\n            }\n            LoginDetails[userAddress].isLoggedIn = true;\n            if (LoginDetails[userAddress].totalLoggedInDays == 7) {\n                // reward user with ETH\n                giveReward(userAddress);\n                // reset totalLoggedInDays\n                LoginDetails[userAddress].totalLoggedInDays = 0;\n            }\n            return (\n                LoginDetails[userAddress].isLoggedIn,\n                LoginDetails[userAddress].totalLoggedInDays\n            );\n        }\n\n        function logoutUser(address walletAddress) public {\n            require(\n                doesLoginExist(walletAddress),\n                \"User is not currently logged in\"\n            );\n            LoginDetails[walletAddress].isLoggedIn = false;\n        }\n        function getRegisteredCompanyName() public view returns (string memory) {\n            return companies[msg.sender].name;\n        }\n    \n    }\n",
  "sourcePath": "/Users/jingwang/IdeaProjects/blockchain-authentication-system/blockchain/contracts/CompanyRegistry.sol",
  "compiler": {
    "name": "solc",
    "version": "0.8.0+commit.c7dfd78e.Emscripten.clang"
  },
  "schemaVersion": "3.4.16",
  "updatedAt": "2024-05-01T00:31:42.367Z",
  "devdoc": {
    "kind": "dev",
    "methods": {},
    "version": 1
  },
  "userdoc": {
    "kind": "user",
    "methods": {},
    "version": 1
  }
}